{
  "contractName": "ItemManager",
  "abi": [
    {
      "anonymous": false,
      "inputs": [
        {
          "indexed": false,
          "internalType": "uint256",
          "name": "_itemIndex",
          "type": "uint256"
        },
        {
          "indexed": false,
          "internalType": "uint256",
          "name": "_step",
          "type": "uint256"
        }
      ],
      "name": "SupplyChainStep",
      "type": "event"
    },
    {
      "inputs": [],
      "name": "isOwner",
      "outputs": [
        {
          "internalType": "bool",
          "name": "",
          "type": "bool"
        }
      ],
      "stateMutability": "view",
      "type": "function"
    },
    {
      "inputs": [
        {
          "internalType": "uint256",
          "name": "",
          "type": "uint256"
        }
      ],
      "name": "items",
      "outputs": [
        {
          "internalType": "string",
          "name": "_identifier",
          "type": "string"
        },
        {
          "internalType": "uint256",
          "name": "_itemPrice",
          "type": "uint256"
        },
        {
          "internalType": "enum ItemManager.SupplyChainState",
          "name": "_state",
          "type": "uint8"
        }
      ],
      "stateMutability": "view",
      "type": "function"
    },
    {
      "inputs": [
        {
          "internalType": "string",
          "name": "_identifier",
          "type": "string"
        },
        {
          "internalType": "uint256",
          "name": "_itemPrice",
          "type": "uint256"
        }
      ],
      "name": "createItem",
      "outputs": [],
      "stateMutability": "nonpayable",
      "type": "function"
    },
    {
      "inputs": [
        {
          "internalType": "uint256",
          "name": "_itemIndex",
          "type": "uint256"
        }
      ],
      "name": "triggerPayment",
      "outputs": [],
      "stateMutability": "payable",
      "type": "function"
    },
    {
      "inputs": [
        {
          "internalType": "uint256",
          "name": "_itemIndex",
          "type": "uint256"
        }
      ],
      "name": "tiggerDelivery",
      "outputs": [],
      "stateMutability": "payable",
      "type": "function"
    }
  ],
  "bytecode": "0x6080604052336000806101000a81548173ffffffffffffffffffffffffffffffffffffffff021916908373ffffffffffffffffffffffffffffffffffffffff1602179055506108c8806100536000396000f3fe60806040526004361061004a5760003560e01c8063095622b41461004f578063800fb83f1461007d5780638c551742146100ab5780638f32d59b1461017d578063bfb231d2146101ac575b600080fd5b61007b6004803603602081101561006557600080fd5b810190808035906020019092919050505061027c565b005b6100a96004803603602081101561009357600080fd5b81019080803590602001909291905050506103d7565b005b3480156100b757600080fd5b5061017b600480360360408110156100ce57600080fd5b81019080803590602001906401000000008111156100eb57600080fd5b8201836020820111156100fd57600080fd5b8035906020019184600183028401116401000000008311171561011f57600080fd5b91908080601f016020809104026020016040519081016040528093929190818152602001838380828437600081840152601f19601f820116905080830192505050505050509192919290803590602001909291905050506105bc565b005b34801561018957600080fd5b506101926106c7565b604051808215151515815260200191505060405180910390f35b3480156101b857600080fd5b506101e5600480360360208110156101cf57600080fd5b810190808035906020019092919050505061071e565b60405180806020018481526020018360028111156101ff57fe5b60ff168152602001828103825285818151815260200191508051906020019080838360005b8381101561023f578082015181840152602081019050610224565b50505050905090810190601f16801561026c5780820380516001836020036101000a031916815260200191505b5094505050505060405180910390f35b6001600281111561028957fe5b6001600083815260200190815260200160002060020160009054906101000a900460ff1660028111156102b857fe5b1461032b576040517f08c379a000000000000000000000000000000000000000000000000000000000815260040180806020018281038252601c8152602001807f4974656d206973206675727468657220696e2074686520636861696e0000000081525060200191505060405180910390fd5b60026001600083815260200190815260200160002060020160006101000a81548160ff0219169083600281111561035e57fe5b02179055507f8c198761ba3d324d155cbaf96f0ac38a531c085089e49106d95352535a1110c260025460016000600254815260200190815260200160002060020160009054906101000a900460ff1660028111156103b857fe5b604051808381526020018281526020019250505060405180910390a150565b34600160008381526020019081526020016000206001015414610462576040517f08c379a000000000000000000000000000000000000000000000000000000000815260040180806020018281038252601b8152602001807f4f6e6c792066756c6c207061796d656e7473206163636570746564000000000081525060200191505060405180910390fd5b6000600281111561046f57fe5b6001600083815260200190815260200160002060020160009054906101000a900460ff16600281111561049e57fe5b14610511576040517f08c379a000000000000000000000000000000000000000000000000000000000815260040180806020018281038252601c8152602001807f4974656d206973206675727468657220696e2074686520636861696e0000000081525060200191505060405180910390fd5b600180600083815260200190815260200160002060020160006101000a81548160ff0219169083600281111561054357fe5b02179055507f8c198761ba3d324d155cbaf96f0ac38a531c085089e49106d95352535a1110c260025460016000600254815260200190815260200160002060020160009054906101000a900460ff16600281111561059d57fe5b604051808381526020018281526020019250505060405180910390a150565b8160016000600254815260200190815260200160002060000190805190602001906105e89291906107ed565b508060016000600254815260200190815260200160002060010181905550600060016000600254815260200190815260200160002060020160006101000a81548160ff0219169083600281111561063b57fe5b02179055507f8c198761ba3d324d155cbaf96f0ac38a531c085089e49106d95352535a1110c260025460016000600254815260200190815260200160002060020160009054906101000a900460ff16600281111561069557fe5b604051808381526020018281526020019250505060405180910390a16002600081548092919060010191905055505050565b60008060009054906101000a900473ffffffffffffffffffffffffffffffffffffffff1673ffffffffffffffffffffffffffffffffffffffff163373ffffffffffffffffffffffffffffffffffffffff1614905090565b6001602052806000526040600020600091509050806000018054600181600116156101000203166002900480601f0160208091040260200160405190810160405280929190818152602001828054600181600116156101000203166002900480156107ca5780601f1061079f576101008083540402835291602001916107ca565b820191906000526020600020905b8154815290600101906020018083116107ad57829003601f168201915b5050505050908060010154908060020160009054906101000a900460ff16905083565b828054600181600116156101000203166002900490600052602060002090601f016020900481019282601f1061082e57805160ff191683800117855561085c565b8280016001018555821561085c579182015b8281111561085b578251825591602001919060010190610840565b5b509050610869919061086d565b5090565b61088f91905b8082111561088b576000816000905550600101610873565b5090565b9056fea264697066735822122047516bef5ce41f7cb9a59e69c0c57384850b9af227e23080fad0466d7bdbd32e64736f6c63430006000033",
  "source": "pragma solidity ^0.6.0;\r\n\r\nimport \"./Ownable.sol\";\r\nimport \"./Item.sol\";\r\n\r\ncontract ItemManager is Ownable {\r\n    enum SupplyChainState{Created, Paid, Delivered}\r\n    \r\n    struct S_Item {\r\n        string _identifier;\r\n        uint _itemPrice;\r\n        ItemManager.SupplyChainState _state;\r\n    }\r\n    \r\n    mapping(uint => S_Item ) public items;    \r\n    uint itemIndex;\r\n    \r\n    event SupplyChainStep(uint _itemIndex, uint _step);\r\n    \r\n    function createItem(string memory _identifier, uint _itemPrice) public {\r\n        items[itemIndex]._identifier = _identifier;\r\n        items[itemIndex]._itemPrice = _itemPrice;\r\n        items[itemIndex]._state = SupplyChainState.Created;\r\n        \r\n        emit SupplyChainStep(itemIndex, uint(items[itemIndex]._state));\r\n        itemIndex++;\r\n    }\r\n    \r\n    function triggerPayment(uint _itemIndex) public payable {\r\n        require(items[_itemIndex]._itemPrice == msg.value, \"Only full payments accepted\");\r\n        require(items[_itemIndex]._state == SupplyChainState.Created, \"Item is further in the chain\");\r\n        \r\n        items[_itemIndex]._state = SupplyChainState.Paid;\r\n        \r\n        emit SupplyChainStep(itemIndex, uint(items[itemIndex]._state));\r\n        \r\n    }\r\n    \r\n    function tiggerDelivery(uint _itemIndex) public payable {\r\n        require(items[_itemIndex]._state == SupplyChainState.Paid, \"Item is further in the chain\");\r\n        \r\n        items[_itemIndex]._state = SupplyChainState.Delivered;        \r\n        \r\n        emit SupplyChainStep(itemIndex, uint(items[itemIndex]._state));\r\n    }    \r\n}",
  "sourcePath": "C:\\laragon\\www\\solidity\\contracts\\ItemManager.sol",
  "compiler": {
    "name": "solc",
    "version": "0.6.0+commit.26b70077.Emscripten.clang"
  },
  "schemaVersion": "3.3.4",
  "updatedAt": "2021-03-08T09:17:58.739Z",
  "devdoc": {
    "methods": {}
  },
  "userdoc": {
    "methods": {}
  }
}